{
  "_format": "hh-sol-artifact-1",
  "contractName": "MerkleProofVerifier",
  "sourceName": "contracts/MerkleProofVerifier.sol",
  "abi": [
    {
      "inputs": [],
      "stateMutability": "nonpayable",
      "type": "constructor"
    },
    {
      "inputs": [
        {
          "internalType": "address",
          "name": "owner",
          "type": "address"
        }
      ],
      "name": "OwnableInvalidOwner",
      "type": "error"
    },
    {
      "inputs": [
        {
          "internalType": "address",
          "name": "account",
          "type": "address"
        }
      ],
      "name": "OwnableUnauthorizedAccount",
      "type": "error"
    },
    {
      "anonymous": false,
      "inputs": [
        {
          "indexed": false,
          "internalType": "bytes32",
          "name": "merkleRoot",
          "type": "bytes32"
        }
      ],
      "name": "MerkleRootSet",
      "type": "event"
    },
    {
      "anonymous": false,
      "inputs": [
        {
          "indexed": true,
          "internalType": "address",
          "name": "previousOwner",
          "type": "address"
        },
        {
          "indexed": true,
          "internalType": "address",
          "name": "newOwner",
          "type": "address"
        }
      ],
      "name": "OwnershipTransferred",
      "type": "event"
    },
    {
      "inputs": [],
      "name": "merkleRoot",
      "outputs": [
        {
          "internalType": "bytes32",
          "name": "",
          "type": "bytes32"
        }
      ],
      "stateMutability": "view",
      "type": "function"
    },
    {
      "inputs": [],
      "name": "owner",
      "outputs": [
        {
          "internalType": "address",
          "name": "",
          "type": "address"
        }
      ],
      "stateMutability": "view",
      "type": "function"
    },
    {
      "inputs": [],
      "name": "renounceOwnership",
      "outputs": [],
      "stateMutability": "nonpayable",
      "type": "function"
    },
    {
      "inputs": [
        {
          "internalType": "bytes32",
          "name": "_merkleRoot",
          "type": "bytes32"
        }
      ],
      "name": "setMerkleRoot",
      "outputs": [],
      "stateMutability": "nonpayable",
      "type": "function"
    },
    {
      "inputs": [
        {
          "internalType": "address",
          "name": "newOwner",
          "type": "address"
        }
      ],
      "name": "transferOwnership",
      "outputs": [],
      "stateMutability": "nonpayable",
      "type": "function"
    },
    {
      "inputs": [
        {
          "internalType": "bytes32[]",
          "name": "proof",
          "type": "bytes32[]"
        },
        {
          "internalType": "bytes32",
          "name": "leaf",
          "type": "bytes32"
        }
      ],
      "name": "verifyTransaction",
      "outputs": [
        {
          "internalType": "bool",
          "name": "",
          "type": "bool"
        }
      ],
      "stateMutability": "view",
      "type": "function"
    }
  ],
  "bytecode": "0x6080604052348015600f57600080fd5b503380603557604051631e4fbdf760e01b81526000600482015260240160405180910390fd5b603c816041565b506091565b600080546001600160a01b038381166001600160a01b0319831681178455604051919092169283917f8be0079c531659141344cd1fd0a4f28419497f9722a3daafe3b4186f6b6457e09190a35050565b6103e8806100a06000396000f3fe608060405234801561001057600080fd5b50600436106100625760003560e01c80632eb4a7ab1461006757806342e4964214610083578063715018a6146100a65780637cb64759146100b05780638da5cb5b146100c3578063f2fde38b146100de575b600080fd5b61007060015481565b6040519081526020015b60405180910390f35b6100966100913660046102de565b6100f1565b604051901515815260200161007a565b6100ae61013c565b005b6100ae6100be36600461035a565b610150565b6000546040516001600160a01b03909116815260200161007a565b6100ae6100ec366004610373565b610193565b60006101348484808060200260200160405190810160405280939291908181526020018383602002808284376000920191909152505060015491508590506101d6565b949350505050565b6101446101ec565b61014e6000610219565b565b6101586101ec565b60018190556040518181527f42cbc405e4dbf1b691e85b9a34b08ecfcf7a9ad9078bf4d645ccfa1fac11c10b9060200160405180910390a150565b61019b6101ec565b6001600160a01b0381166101ca57604051631e4fbdf760e01b8152600060048201526024015b60405180910390fd5b6101d381610219565b50565b6000826101e38584610269565b14949350505050565b6000546001600160a01b0316331461014e5760405163118cdaa760e01b81523360048201526024016101c1565b600080546001600160a01b038381166001600160a01b0319831681178455604051919092169283917f8be0079c531659141344cd1fd0a4f28419497f9722a3daafe3b4186f6b6457e09190a35050565b600081815b84518110156102a45761029a8286838151811061028d5761028d61039c565b60200260200101516102ac565b915060010161026e565b509392505050565b60008183106102c85760008281526020849052604090206102d7565b60008381526020839052604090205b9392505050565b6000806000604084860312156102f357600080fd5b833567ffffffffffffffff81111561030a57600080fd5b8401601f8101861361031b57600080fd5b803567ffffffffffffffff81111561033257600080fd5b8660208260051b840101111561034757600080fd5b6020918201979096509401359392505050565b60006020828403121561036c57600080fd5b5035919050565b60006020828403121561038557600080fd5b81356001600160a01b03811681146102d757600080fd5b634e487b7160e01b600052603260045260246000fdfea26469706673582212201508f4d248efd69561fb746e2dcdccb44a4474d24c8c53f3fe7b3c20c5cc428964736f6c634300081b0033",
  "linkReferences": {},
  "deployedLinkReferences": {}
}